:020000040800F2
:10000000FFFF0220DD0F00082D1000082D10000852
:100010002D1000082D1000082D1000080000000011
:100020000000000000000000000000002D1000088B
:100030002D100008000000002D1000082D100008F1
:100040002D1000082D1000082D1000082D1000089C
:100050002D1000082D1000082D1000082D1000088C
:100060002D1000082D1000082D1000082D1000087C
:100070002D1000082D1000082D1000082D1000086C
:100080002D1000082D1000082D1000082D1000085C
:100090002D1000082D1000082D1000082D1000084C
:1000A0002D1000082D1000082D1000082D1000083C
:1000B0002D1000082D1000082D1000082D1000082C
:1000C0002D1000082D1000082D1000082D1000081C
:1000D0002D1000082D1000082D1000082D1000080C
:1000E0002D1000082D1000082D1000082D100008FC
:1000F0002D1000082D1000082D1000082D100008EC
:100100002D1000082D1000082D1000082D100008DB
:100110002D1000082D1000082D1000082D100008CB
:100120002D1000082D1000082D1000082D100008BB
:100130002D1000082D1000082D1000082D100008AB
:100140002D1000082D1000082D1000082D1000089B
:100150002D1000082D1000084D0400082D10000877
:100160002D1000082D1000082D1000082D1000087B
:100170002D1000082D1000082D10000800000000B0
:100180002D1000082D1000082D1000082D1000085B
:100190002D1000082D1000082D1000082D1000084B
:0C01A0002D1000082D1000082D10000884
:1001AC0010B5054C237833B9044B13B10448AFF3A5
:1001BC0000800123237010BD5004002000000000BB
:1001CC0030100008084B10B51BB108480849AFF3B4
:1001DC0000800848036803B910BD074B002BFBD007
:1001EC00BDE81040184700BF0000000030100008A8
:1001FC0054040020500400200000000080B483B0A0
:10020C0000AF786002E07B68013B7B607B68002B71
:10021C00F9D10C37BD465DF8047B704780B500AF53
:10022C0001200E21084A00F013F80848FFF7E6FFFA
:10023C000E20054900F072F80448FFF7DFFF0E208E
:10024C00014900F089F8F0E70018024040420F0025
:10025C0080B584B000AFF860B9607A60786800F05F
:10026C00C9F87B681B68BA685200032101FA02F2D4
:10027C00D2431A407B681A607B681B68BA685200CC
:10028C00F96801FA02F21A437B681A607B685B68B2
:10029C00BA685200032101FA02F2D2431A407B6879
:1002AC005A607B685A687B685A607B689B68BA683E
:1002BC005200032101FA02F2D2431A407B689A6081
:1002CC007B689B68BA685200032101FA02F21A4358
:1002DC007B689A601037BD4680BD00BF80B483B088
:1002EC0000AF786039603B68DB687A6852000321A4
:1002FC0001FA02F2D2431A403B68DA603B68DB68D1
:10030C007A685200022101FA02F21A433B68DA6061
:10031C000C37BD465DF8047B704700BF80B483B0DA
:10032C0000AF03463960FB803B685B69FA880121AA
:10033C0001FA02F2D2431A403B685A613B685B698E
:10034C00FA88012101FA02F21A433B685A610C3710
:10035C00BD465DF8047B704780B483B000AF0346A4
:10036C003960FB803B685B69FA88012101FA02F273
:10037C00D2431A403B685A613B685A693B685A61E0
:10038C000C37BD465DF8047B704700BF80B483B06A
:10039C0000AF03463960FB803B681B6903F0010228
:1003AC003B681A610C37BD465DF8047B704700BF93
:1003BC0080B483B000AF786039603B684FF4C042C2
:1003CC009A610C37BD465DF8047B704780B400AF72
:1003DC00074A074B1B6923F480031361044A044B3F
:1003EC001B6B43F480031363BD465DF8047B7047BD
:1003FC000038024080B485B000AF78607B6803F1B0
:10040C003F4303F57E03002B01DA03F2FF339B120B
:10041C00FB600A49094B1B690120FA6800FA02F2D9
:10042C00D24313400B61054B1B6B044B4FF0FF3257
:10043C001A631437BD465DF8047B704700380240E0
:10044C0080B582B000AF0A4B5B687B60094B1B88A0
:10045C003B607B68012B02D1FFF7E0FE05E0044A0C
:10046C00034BDB6843F00063D3600837BD4680BDA7
:10047C00006402407004002080B400AF064A064BB2
:10048C00DB6843F00063D360044B01221A70BD4655
:10049C005DF8047B704700BF006402406C040020D0
:1004AC0080B584B000AF0923FB600F4B1B88BB6089
:1004BC0000F060F90C4B9AB20C4B9BB210461946EB
:1004CC00FA6800F0F3F9462000F030FCFFF7D4FF97
:1004DC00074B5B687B60074B1B78DBB2002B02D0B1
:1004EC00044B00221A70F3E7700400200000002077
:1004FC00006402406C04002080B500AF114A114B1F
:10050C001B6843F0010313600E4B00229A600D4AE6
:10051C000C4B1B6823F0847323F480331360094B5A
:10052C00094A5A60074A074B1B6823F4802313605F
:10053C00044B0022DA6000F087F8044B4FF00062A5
:10054C009A6080BD003802401030002400ED00E0BD
:10055C0080B487B000AF00233B6100237B61022392
:10056C00FB600023BB6002237B60324B9B6803F073
:10057C000C033B613B69042B07D0082B09D0002BE3
:10058C003FD12D4B2D4A1A603FE02B4B2C4A1A6061
:10059C003BE0284B5B6803F480039B0DBB60254B51
:1005AC005B6803F03F037B60BB68002B0DD0244AD3
:1005BC007B68B2FBF3F21F4B596847F6C0730B40D4
:1005CC009B0903FB02F37B610CE01C4A7B68B2FBCA
:1005DC00F3F2184B596847F6C0730B409B0903FBA9
:1005EC0002F37B61134B5B6803F440331B0C013348
:1005FC005B00FB607A69FB68B2FBF3F30E4A136095
:10060C0003E00D4B0D4A1A6000BF0A4B9B6803F0C8
:10061C00F0031B090B4AD35CDBB23B61064B1A6837
:10062C003B6922FA03F3044A13601C37BD465DF89C
:10063C00047B704700380240140000200024F400B2
:10064C0000127A001800002080B483B000AF0023A1
:10065C007B6000233B60434A424B1B6843F480336E
:10066C001360404B1B6803F400333B607B68013321
:10067C007B603B68002B04D17B6841F2883293424B
:10068C00EFD1384B1B6803F40033002B02D001234D
:10069C003B6001E000233B603B68012B5CD1314A9D
:1006AC00304B1B6C43F0805313642F4A2E4B1B684A
:1006BC0043F4404313602B4A2A4B9B689360294AAE
:1006CC00284B9B6843F400439360264A254B9B6858
:1006DC0043F4A0539360234B244A5A60214A214B84
:1006EC001B6843F08073136000BF1E4B1B6803F044
:1006FC000073002BF9D01C4A1B4B1B6843F480334E
:10070C00136000BF184B5B6803F48033002BF9D0E7
:10071C00154A154B1B6843F40033136000BF124B92
:10072C005B6803F40033002BF9D0114B40F20572D7
:10073C001A600C4A0B4B9B6823F003039360094A25
:10074C00084B9B6843F00203936000BF054B9B680A
:10075C0003F00C03082BF9D10C37BD465DF8047B74
:10076C00704700BF0038024000700040085A400734
:10077C00003C024080B500AFFFF728FE4A4B1B68D7
:10078C00494B00221A60484B5B68474B00225A6069
:10079C00454A454BD3F8B83023F00103C2F8B830C2
:1007AC00414A414BD3F8B83043F4413343F404731A
:1007BC00C2F8B8303C4A3C4BD3F8B830C2F8B83029
:1007CC00394A394BD3F8B830C2F8B830364A364BC0
:1007DC00D3F8B830C2F8B830334A334BD3F8B8300A
:1007EC0043F08003C2F8B8302F4A2F4BD3F8B830FF
:1007FC00C2F8B8302C4A2C4BD3F8B83043F48043B1
:10080C00C2F8B830284A284BD3F8B830C2F8B83000
:10081C00254A254BD3F8B83043F48053C2F8B8308E
:10082C00214A214BD3F8B830C2F8B8301E4A1E4BBF
:10083C00D3F8B830C2F8B8301B4A1B4BD3F8B830D9
:10084C00C2F8B830184A184BD3F8B830C2F8B830E0
:10085C00154A154BD3F8B830C2F8B830124A124BBF
:10086C00D3F8B830C2F8B8300F4A0F4BD3F8B830C1
:10087C00C2F8B8300C4A0C4BD3F8B830C2F8B830C8
:10088C00094A094BD3F8B830C2F8B830064A064BBF
:10089C00D3F8B830C2F8B830034A034BDB6843F0E6
:1008AC000063D36080BD00BF0064024080B483B09D
:1008BC0000AF03463A60FB800B46BB80174BD3F866
:1008CC00B83003F00103002B0FD0144A134BD3F8AC
:1008DC00B83023F00103C2F8B83000BF0F4BD3F887
:1008EC00B83003F00103002BF8D10C4ABB88C2F8D6
:1008FC00C0300A4AFB88C2F8C430084A3B68C2F8C8
:10090C00BC30064A054BD3F8B83043F00103C2F8AB
:10091C00B8300C37BD465DF8047B7047006402406C
:10092C0080B483B000AF084B5B687B607B68012BA5
:10093C0005D1054A044B5B6823F0006353600C3708
:10094C00BD465DF8047B70470064024080B485B0FE
:10095C0000AF78607B6803F00703FB600C4BDB682F
:10096C00BB60BA684FF6FF031340BB60FB681A020A
:10097C00BB68134343F0BF6343F40033BB60044ACA
:10098C00BB68D3601437BD465DF8047B704700BF6D
:10099C0000ED00E080B400AF044BDB6803F4E063CF
:1009AC001B0A1846BD465DF8047B704700ED00E05D
:1009BC0080B483B000AF0346FB71084997F9073048
:1009CC005B09FA7902F01F02012000FA02F241F8E9
:1009DC0023200C37BD465DF8047B704700E100E036
:1009EC0080B483B000AF0346FB71094997F9073017
:1009FC005B09FA7902F01F02012000FA02F220339F
:100A0C0041F823200C37BD465DF8047B704700BFCE
:100A1C0000E100E080B483B000AF0346FB710C4AE8
:100A2C0097F907305B09403352F82330FA7902F01A
:100A3C001F02012101FA02F21340002B01D0012305
:100A4C0000E0002318460C37BD465DF8047B704768
:100A5C0000E100E080B483B000AF0346FB710949AC
:100A6C0097F907305B09FA7902F01F02012000FAAE
:100A7C0002F2403341F823200C37BD465DF8047B6D
:100A8C00704700BF00E100E080B483B000AF0346C4
:100A9C00FB71094997F907305B09FA7902F01F02DB
:100AAC00012000FA02F2603341F823200C37BD46D6
:100ABC005DF8047B704700BF00E100E080B483B0B8
:100ACC0000AF0346FB710C4A97F907305B09803382
:100ADC0052F82330FA7902F01F02012101FA02F2D6
:100AEC001340002B01D0012300E0002318460C37E3
:100AFC00BD465DF8047B704700E100E080B483B034
:100B0C0000AF03463960FB7197F90730002B0BDA05
:100B1C000D49FB7903F00F03043B3A68D2B2120182
:100B2C00D2B20B441A7609E0084997F907303A68B3
:100B3C00D2B21201D2B20B4483F800230C37BD465B
:100B4C005DF8047B704700BF00ED00E000E100E0C1
:100B5C0080B483B000AF0346FB7197F90730002BCC
:100B6C000ADA0D4AFB7903F00F03043B13441B7E96
:100B7C00DBB21B09DBB208E0084A97F907301344D3
:100B8C0093F80033DBB21B09DBB218460C37BD46B9
:100B9C005DF8047B704700BF00ED00E000E100E071
:100BAC0080B489B000AFF860B9607A60FB6803F07C
:100BBC000703FB61FB69C3F10703042B28BF042364
:100BCC00BB61FB690433062B02D9FB69033B00E0D4
:100BDC0000237B61BB69012202FA03F3013B1A4635
:100BEC00BB681A407B699A407B69012101FA03F3C7
:100BFC00013B19467B680B40134318462437BD460E
:100C0C005DF8047B704700BF80B489B000AFF8601A
:100C1C00B9607A603B60BB6803F00703FB61FB695A
:100C2C00C3F10703042B28BF0423BB61FB69043306
:100C3C00062B02D9FB69033B00E000237B617B6937
:100C4C00FA6822FA03F3BA69012101FA02F2013AB5
:100C5C001A407B681A607B69012202FA03F3013B9C
:100C6C001A46FB681A403B681A602437BD465DF88B
:100C7C00047B704780B400AFBFF34F8F0549054B21
:100C8C00DB6803F4E062044B1343CB60BFF34F8F7C
:100C9C00FEE700BF00ED00E00400FA0580B582B06D
:100CAC0000AF78607B68013BB3F1807F01D30123F7
:100CBC000FE00A4A7B68013B53604FF0FF300F2175
:100CCC00FFF71CFF054B00229A60044B07221A60A9
:100CDC00002318460837BD4680BD00BF10E000E079
:100CEC0080B582B000AF78607868FFF72FFE0837C8
:100CFC00BD4680BD80B586B000AF0346B9607A6052
:100D0C00FB7300237B61FFF745FE78617869B96856
:100D1C007A68FFF745FF024697F90F3018461146DF
:100D2C00FFF7ECFE1837BD4680BD00BF80B582B022
:100D3C0000AF0346FB7197F907301846FFF738FEF2
:100D4C000837BD4680BD00BF80B582B000AF0346FA
:100D5C00FB7197F907301846FFF742FE0837BD467E
:100D6C0080BD00BF80B500AFFFF784FF80BD00BF22
:100D7C0080B582B000AF78607868FFF78FFF0346CC
:100D8C0018460837BD4680BD80B500AFFFF702FEA0
:100D9C000346184680BD00BF80B584B000AFB96073
:100DAC007A603B600346FB7397F90F301846FFF7E8
:100DBC00CFFE03461846B9687A683B68FFF724FFF4
:100DCC001037BD4680BD00BF80B582B000AF034672
:100DDC00FB7197F907301846FFF73CFE0837BD4604
:100DEC0080BD00BF80B582B000AF0346FB7197F9A0
:100DFC0007301846FFF70EFE034618460837BD4667
:100E0C0080BD00BF80B582B000AF0346FB7197F97F
:100E1C0007301846FFF738FE0837BD4680BD00BFC7
:100E2C0080B582B000AF0346FB7197F907301846C6
:100E3C00FFF744FE034618460837BD4680BD00BF89
:100E4C0080B483B000AF78607B68042B06D1094A6C
:100E5C00084B1B6843F00403136005E0054A054B7F
:100E6C001B6823F0040313600C37BD465DF8047B4C
:100E7C00704700BF10E000E080B500AF00F002F852
:100E8C0080BD00BF80B400AFBD465DF8047B7047E9
:100E9C0070B50F4E0F4D761BB61018BF002405D041
:100EAC00013455F8043B9847A642F9D10A4E0B4D34
:100EBC00761B00F0B7F8B61018BF002406D001342A
:100ECC0055F8043B9847A642F9D170BD70BD00BFE0
:100EDC00501000085010000858100008501000085E
:100EEC00024B13B1024800F005B870470000000037
:100EFC000D0F0008014600200246034600F016B80C
:100F0C0038B5084B084DED1AAC1018BFED1805D0CC
:100F1C00013C55F8043D9847002CF9D1BDE8384008
:100F2C0000F086B8581000085C1000082DE9F04756
:100F3C00254C2568D5F84841064688469246994680
:100F4C00CCB360681F2818DC431C7EB104EB800511
:100F5C000121C5F888A0D4F8887101FA00F2174372
:100F6C00022EC4F88871C5F808911ED00230636057
:100F7C0044F820800020BDE8F087144B03B34FF4F5
:100F8C00C870AFF300800446D0B1D5F848310027C3
:100F9C0080E88800C5F8484138460123C4F88871B8
:100FAC00C4F88C71002EE1D0D0E7D4F88C110A4330
:100FBC00C4F88C21DAE705F5A674C5F84841C0E7FA
:100FCC004FF0FF30BDE8F0874C1000080000000027
:100FDC00DFF834D0002103E00C4B5B584350043154
:100FEC000B480C4B42189A42F6D30B4A02E00023F2
:100FFC0042F8043B094B9A42F9D3FFF77DFAFFF70D
:10100C0047FFFFF74DFA7047FFFF02205C10000806
:10101C000000002050040020500400208804002010
:10102C00FEE70000F8B500BFF8BC08BC9E46704750
:0C103C00F8B500BFF8BC08BC9E46704729
:08104800430000002800002015
:08105000ED0E0008D1010008BB
:04105800AD010008DE
:10105C000100020003000400050006000700080060
:10106C00090000000095BA0A000000000000000012
:10107C000102030406070809000000001403002005
:10108C007C030020E40300200000000000000000AE
:10109C000000000000000000000000000000000044
:1010AC0000000000000000000000000048100008D4
:1010BC000000000000000000000000000000000024
:1010CC000000000000000000000000000000000014
:1010DC000000000000000000000000000000000004
:1010EC0000000000000000000000000000000000F4
:1010FC0000000000000000000000000000000000E4
:10110C0000000000000000000000000000000000D3
:10111C0000000000000000000000000000000000C3
:10112C0001000000000000000E33CDAB34126DE660
:10113C00ECDE05000B0000000000000000000000C9
:10114C000000000000000000000000000000000093
:10115C000000000000000000000000000000000083
:10116C000000000000000000000000000000000073
:10117C000000000000000000000000000000000063
:0400000508000FDD03
:00000001FF
